:100000000C942A000C943F000C943F000C943F0089
:100010000C943F000C943F000C943F000C943F0064
:100020000C943F000C943F000C943F000C943F0054
:100030000C943F000C943F000C943F000C943F0044
:100040000C943F000C943F000C943F000C943F0034
:100050000C943F0011241FBECFE5D8E0DEBFCDBF1A
:1000600010E0A0E6B0E0E4E8F6E002C005900D92F2
:10007000A83AB107D9F70E9441000C9440030C94B0
:100080000000EF92FF920F931F930E94FE028CE0FC
:100090000E94B50280E00E94340280E090E06BE7AD
:1000A0000E94380380E690E00E94A20281E060E0B6
:1000B0000E94F402FF248AE0E82E00E080E00E9423
:1000C000EA01182F833661F481E00E94B50280E6D0
:1000D00090E00E94A20281E060E00E94F402EDCF75
:1000E0008F3F61F38D3351F08AE20E9463020E9DCF
:1000F000802D1124012F0053080FE0CF81E00E94D2
:10010000B50280E090E00E943103081719F48BE6F5
:1001100090E011C082E0F816B9F480E062E00E943D
:10012000F40284E790E00E94A20281E065E00E9470
:10013000F40284E890E00E94A20280E090E01F9127
:100140000F91FF90EF9008958DE890E00E94A20239
:1001500081E060E00E94F402F394AFCF813031F18E
:10016000813038F0823009F43EC0833009F072C02B
:1001700056C0442321F0413009F06CC00CC02AB3B2
:1001800081E090E002C0880F991F6A95E2F78095A0
:1001900082238ABB08952AB381E090E002C0880FD1
:1001A000991F6A95E2F7282B2ABB0895442321F072
:1001B000413009F04FC00CC027B381E090E002C08D
:1001C000880F991F6A95E2F78095822387BB08956F
:1001D00027B381E090E002C0880F991F6A95E2F78B
:1001E000282B27BB0895442319F0413099F50CC002
:1001F00024B381E090E002C0880F991F6A95E2F76E
:100200008095822384BB089524B381E090E002C0EE
:10021000880F991F6A95E2F7282B24BB0895442381
:1002200019F04130B9F40CC021B381E090E002C074
:10023000880F991F6A95E2F78095822381BB089504
:1002400021B381E090E002C0880F991F6A95E2F720
:10025000282B21BB0895813049F0813028F082306D
:1002600039F0833041F406C06ABB089567BB089536
:1002700064BB089561BB0895813031F1813038F05D
:10028000823009F43EC0833009F072C056C0442366
:1002900021F0413009F06CC00CC02BB381E090E03C
:1002A00002C0880F991F6A95E2F7809582238BBB65
:1002B00008952BB381E090E002C0880F991F6A95E2
:1002C000E2F7282B2BBB0895442321F0413009F09D
:1002D0004FC00CC028B381E090E002C0880F991F86
:1002E0006A95E2F78095822388BB089528B381E060
:1002F00090E002C0880F991F6A95E2F7282B28BB6F
:100300000895442319F0413099F50CC025B381E0DC
:1003100090E002C0880F991F6A95E2F780958223CA
:1003200085BB089525B381E090E002C0880F991F36
:100330006A95E2F7282B25BB0895442319F0413034
:10034000B9F40CC022B381E090E002C0880F991F7D
:100350006A95E2F78095822382BB089522B381E0FB
:1003600090E002C0880F991F6A95E2F7282B22BB04
:100370000895813049F0813028F0823039F083309F
:1003800041F406C06BBB089568BB089565BB089532
:1003900062BB0895813051F0813030F0823041F0FD
:1003A000833079F080E0089589B303C086B301C03B
:1003B00083B390E002C0959587956A95E2F78170C6
:1003C000089580B390E002C0959587956A95E2F70D
:1003D00081700895AF92BF92CF92DF92EF92FF9219
:1003E0000F931F93CF93DF93E82EDD24DA9400E080
:1003F00010E028ECA22EB12CC02E8E2D602F40E0F4
:100400000E943C01E801CC0FDD1FCC0FDD1FC85658
:10041000DF4F84E0F82E8E2D6F2D0E94CA018823B5
:1004200041F4D88080ED97E0F5013197F1F701971D
:10043000D9F7F394219688E0F81669F78E2D6C2D84
:1004400041E00E943C010F5F1F4F04301105A1F6EF
:100450008D2DDF91CF911F910F91FF90EF90DF9045
:10046000CF90BF90AF9008951F93182F60E041E0A8
:100470000E94AE00812F61E041E00E94AE00812F1A
:1004800062E041E00E94AE00812F63E041E00E9403
:10049000AE00812F64E040E00E94AE00812F65E055
:1004A00040E00E94AE00812F66E040E00E94AE0076
:1004B000812F67E040E00E94AE00812F6FEF0E9425
:1004C000B9011F910895FF920F931F93F82E82E0B8
:1004D00060E041E00E943C0182E061E040E00E9477
:1004E0003C0183E06F2D0E94B90182E062E041E0AF
:1004F0000E943C0100EA1FE0C8010197F1F782E089
:1005000062E040E00E943C01C8010197F1F7F294DB
:1005100080EFF82283E06F2D0E94B90182E062E053
:1005200041E00E943C01C8010197F1F782E062E0DE
:1005300040E00E943C01C8010197F1F71F910F9123
:10054000FF9008951F93CF93DF93EC0110E003C059
:100550000E9463021F5FFE01E10FF11D808188236D
:10056000B9F7DF91CF911F910895FF920F931F93D9
:10057000F82E82E060E040E00E943C0182E061E011
:1005800040E00E943C0183E06F2D0E94B90182E0AF
:1005900062E041E00E943C0100EA1FE0C8010197CF
:1005A000F1F782E062E040E00E943C01C80101975F
:1005B000F1F7F29420EFF22283E06F2D0E94B9014F
:1005C00082E062E041E00E943C01C8010197F1F73E
:1005D00082E062E040E00E943C01C8010197F1F72F
:1005E0001F910F91FF900895882319F4862F80584A
:1005F00002C0862F80540E94B50208951F9383E0A5
:100600006FEF0E942B0182E060E041E00E94AE00AB
:1006100082E061E041E00E94AE0082E062E041E001
:100620000E94AE0080E09AEF0197F1F782E00E940D
:10063000B5028CE20E94B50210E7812F8A95F1F78E
:100640008FE00E94B5021A95F1F781E00E94B50291
:1006500080EA9FE00197F1F786E00E94B5021F91C2
:100660000895E199FECF9FBB8EBBE09A8DB30895AC
:10067000E199FECF9FBB8EBB6DBBE29AE19A0895D4
:04068000F894FFCF1C
:1006840050617373776F72643A20005375636365C6
:10069400737321004E756D626572206F66207472EB
:1006A400696573006578636565646564005472798F
:1006B40020416761696E2E003738392F3435362A68
:0806C4003132332D63303D2B70
:00000001FF
